:10020300FEFDFBF7EFDFBF7F3F065B4F666D7D07AC
:080213007F6F777C395E797181
:0A021B000808FEFDFBF7EFDFBF7FD0
:0C000300D28C758901758C4B758AFD222A
:07022600D2AFD2AAD28A2256
:030013000200A246
:1000A200C0E0C0F0C083C082C0D075D000C000C024
:0D00B20001C002C003C004C005C006C007A5
:1000BF0075100074082510F8E6F5907F2C7E01125C
:1000CF0001A90510E510C3940840E87F2C7E0112AA
:0200DF0001A975
:1000E100D007D006D005D004D003D002D001D00073
:0B00F100D0D0D082D083D0F0D0E0321D
:0E019B0090020B93F580D2A6C2A67F327E00A2
:0401A9008F828E8330
:1001AD00E4FBF5151200037C007D32AF82AE8312A5
:1001BD0000FCEBC39FE49E500E308DEBC28D758C11
:0701CD004B758AFD0B80E079
:0101D4002208
:05022D00C2B7D2B722A8
:040151008D12AA075A
:10015500E4F513F514AE13AF147C007D141200FC06
:10016500ED4C70010A900203E493F580D2A7C2A773
:10017500E51212019B900204E493F580D2A7C2A771
:10018500EA12019B0514E51470020513C394C8E532
:0501950013940040C0BE
:01019A002242
:1001D500E4F975F00A84FFE975F00A84ADF01201BF
:1001E500511202267FE87E031201A90912022DE4AD
:0D01F500F590C2A37FE87E031201A9D2A3FA
:0102020022D9
:03000000020016E5
:0C001600787FE4F6D8FD75811502005DCE
:1000FC00BC000BBE0029EF8DF084FFADF022E4CCE8
:10010C00F875F008EF2FFFEE33FEEC33FCEE9DECB0
:10011C00984005FCEE9DFE0FD5F0E9E4CEFD22EDF6
:10012C00F8F5F0EE8420D21CFEADF075F008EF2F40
:10013C00FFED33FD4007985006D5F0F222C398FD31
:05014C000FD5F0EA22CE
:100022000201D5E493A3F8E493A34003F68001F21E
:1000320008DFF48029E493A3F85407240CC8C333DF
:10004200C4540F4420C8834004F456800146F6DFAE
:10005200E4800B010204081020408090021BE47E21
:10006200019360BCA3FF543F30E509541FFEE493A3
:10007200A360010ECF54C025E060A840B8E493A36A
:10008200FAE493A3F8E493A3C8C582C8CAC583CA95
:10009200F0A3C8C582C8CAC583CADFE9DEE780BE4D
:0102250000D8
:00000001FF
