:10016500FEFDFBF7EFDFBF7F3F065B4F666D7D074B
:080175007F6F777C395E797120
:10014D000B0868656C6C6F776F72640A000813FE9C
:07015D00FDFBF7EFDFBF7FA0
:0C01A600D28C438901758CDC758AD42250
:10017D00D2AFD2ACD29CC29FD29ED28E4389207573
:06018D008DFD758BFD22C3
:04012000AB07AA0679
:100124009000001201A67C007D0AAF03AE0212000B
:10013400CBC3E5829FE5839E500E308DE9C28D7559
:080144008CDC758AD4A380DE77
:01014C002290
:0A01BE008F99751B01E51B70FC22F0
:100193001200B2FF600C1201BE740129F9E43AFAAD
:0301A30080EE22C9
:1000030012017D1201A67B007A0079081201937F09
:08001300E87E0312012080EEDB
:030023000201B225
:0C01B200309803C29832C299751B0032CD
:03000000020026D5
:0C002600787FE4F6D8FD75811B02006DA8
:1000B200BB010689828A83E0225002E722BBFE024C
:0900C200E32289828A83E493227F
:1000CB00BC000BBE0029EF8DF084FFADF022E4CC19
:1000DB00F875F008EF2FFFEE33FEEC33FCEE9DECE2
:1000EB00984005FCEE9DFE0FD5F0E9E4CEFD22ED28
:1000FB00F8F5F0EE8420D21CFEADF075F008EF2F72
:10010B00FFED33FD4007985006D5F0F222C398FD62
:05011B000FD5F0EA22FF
:10003200020003E493A3F8E493A34003F68001F2E1
:1000420008DFF48029E493A3F85407240CC8C333CF
:10005200C4540F4420C8834004F456800146F6DF9E
:10006200E4800B010204081020408090014DE47EE0
:10007200019360BCA3FF543F30E509541FFEE49393
:10008200A360010ECF54C025E060A840B8E493A35A
:10009200FAE493A3F8E493A3C8C582C8CAC583CA85
:1000A200F0A3C8C582C8CAC583CADFE9DEE780BE3D
:01016400009A
:00000001FF
