:0C00AB00D28C758901758CDC758AD4221A
:04005800AB07AA0642
:10005C009000001200AB7C007D0AAF03AE021200D0
:10006C0003C3E5829FE5839E500E308DE9C28D75EA
:08007C008CDC758AD4A380DE40
:010084002259
:1000850075A0FF1200AB75A0FE7FE87E0312005835
:10009500AFA07801EF08800123D8FDF5A07FE87EA9
:0600A5000312005880EA7E
:030000000200B744
:0C00B700787FE4F6D8FD75810702008513
:10000300BC000BBE0029EF8DF084FFADF022E4CCE1
:10001300F875F008EF2FFFEE33FEEC33FCEE9DECAA
:10002300984005FCEE9DFE0FD5F0E9E4CEFD22EDF0
:10003300F8F5F0EE8420D21CFEADF075F008EF2F3A
:10004300FFED33FD4007985006D5F0F222C398FD2B
:050053000FD5F0EA22C8
:00000001FF
